:100000000C94B9000C94D6000C94D6000C94D60035
:100010000C94D6000C94D6000C94D6000C94D60008
:100020000C94D6000C94D6000C94D6000C940102CB
:100030000C9422020C94D6000C94D6000C94D6009A
:100040000C94D6000C94D6000C94D6000C94D600D8
:100050000C94D6000C94D6000C94D6000C94D600C8
:100060000C94D6000C94D6000C94D6000C94D600B8
:100070000C94D600212601070000000000010000BA
:100080005A0112000200001D0122002100002F0170
:1000900009002200003F011B0003000019010401B8
:1000A000030904CF004802030904AD0020200355D2
:1000B000006E006F004A006F00790020004A006F58
:1000C00000790073007400690063006B0000004851
:1000D000034F00700065006E00430068006F0072FF
:1000E00000640020005800200052004D00490054D8
:1000F0000020004500780065007200740069006F00
:10010000006E002000470061006D00650073002054
:10011000004C00610062000000040309040902228F
:100120000001010080320904000001030000000901
:100130002111010001221B000705810340000A056F
:10014000010904A101150026FF0046FF000933093B
:10015000340935750895038102C0120110010000B1
:100160000040C410C08200010102000101C1320040
:10017000000011241FBECFEFD2E0DEBFCDBF11E0E3
:10018000A0E0B1E0EAE7F6E002C005900D92A230EF
:10019000B107D9F721E0A2E0B1E001C01D92A7307C
:1001A000B207E1F70E942F010C943B030C9400006E
:1001B0009093CD008093CC0088E18093C90086E0C5
:1001C0008093CA0008952091C80027FD0AC0EFE976
:1001D000FFE03197F1F700C000000197A1F780E040
:1001E00008958091CE0008959091C80095FFFCCFAE
:1001F0008093CE000895CF93DF931F92CDB7DEB7E3
:100200008091C80087FF04C08091CE008983F8CF19
:100210000F90DF91CF9108954AB121E030E0B9010C
:1002200002C0660F771F8A95E2F7CB01462B4AB9C9
:100230009BB1809589238BB908954AB121E030E0C4
:10024000B90102C0660F771F8A95E2F7CB01962F9E
:10025000909549234AB99BB1892B8BB90895A895EC
:1002600084B7877F84BF0FB6F894A895809160000B
:10027000886180936000109260000FBE89E190E079
:100280000E94D80080E880936100109261000E9473
:10029000A0010E94C401811119C085E00E940C01D7
:1002A0002FEF80E792E0215080409040E1F700C0BE
:1002B000000085E00E941D012FEF80E792E02150B1
:1002C00080409040E1F700C00000E3CF2FEF89E6C7
:1002D00098E1215080409040E1F700C000008FE39A
:1002E0009CE90197F1F700C000000E94FB0085E047
:1002F0000E940C0180E00E94F40089E190E00E94DD
:10030000E300182F81E00E94F40089E190E00E9450
:10031000E300D82F82E00E94F40089E190E00E947F
:10032000E300C82F85E00E941D01612F7D2F8C2FD7
:100330000E94FA01D4CF8091E80080FFFCCF08959D
:1003400080EA8093D80086E089BD80E090E009B41F
:1003500000FC0DC0EFE9FFE03197F1F700C00000AD
:100360000196883EF3E09F0791F781E0089580E8C9
:100370008093D8001092E000109203018CE08093EB
:10038000E200789480E008958091030108958091BF
:100390000301882369F18FB7F89491E09093E90005
:1003A0009091E4009E5C21E03091E80035FF12C09E
:1003B000909104019093F100909105019093F100C8
:1003C000909106019093F1009AE39093E8008FBF1B
:1003D00080E008958FBF80910301882349F08091C8
:1003E000E400981729F08FB7F8942093E900DCCF48
:1003F0008FEF0895E4E0F1E06083718382830C94D1
:10040000C7011F920F920FB60F9211248F93809104
:10041000E1001092E10083FF0FC01092E90081E03B
:100420008093EB001092EC0082E38093ED0088E073
:100430008093F000109203018F910F900FBE0F90E8
:100440001F9018951F920F920FB60F9211242F93A1
:100450003F934F935F936F937F938F939F93AF934C
:10046000BF93CF93DF93EF93FF931092E9008091B6
:10047000E80083FFEAC09091F1008091F100C09103
:10048000F1002091F100D0E0D22B2091F1004091B9
:10049000F10030E0342B4091F1005091F10062EF17
:1004A0006093E800863009F049C08CE790E0FC01D9
:1004B00065917491C617D707E1F4FC0132966591F6
:1004C000749126173707A9F4FC013496659174914D
:1004D000FC0136968491242F30E0352B2F3F3105D7
:1004E00019F010F02FEF30E0281708F4822F3EEFBC
:1004F0000DC0079660E08D3A9607C9F6A6C0690F51
:10050000711D891B3093E8008823A9F09091E800C1
:10051000292F2570D9F392FD9BC0982F813408F0C4
:1005200090E4FB01292F222351F344914093F100E1
:1005300021503196F8CF903449F38AC0853049F480
:100540008EEF8093E8000E949B01C068C093E30097
:100550007FC0893059F591113BC0C09303018EEFE4
:100560008093E80041E08CE691E04093E9009C0133
:100570002F5F3F4FFC0154915093EB00552359F0EE
:10058000F90124912093EC009C012D5F3F4F31969F
:10059000E491E093ED004F5F453011F0C901E5CFE4
:1005A0008EE18093EA001092EA0052C0883039F45C
:1005B000903871F40E949B01809103012AC081113F
:1005C00007C00E949B011092F1001092F10039C007
:1005D000232BD9F5913A01F5813071F40E949B01EA
:1005E000E4E7F0E08CE790E024912093F10031966D
:1005F0008E179F07C9F725C0823029F40E949B01FE
:100600008091020106C0833001F50E949B01809118
:1006100000018093F10015C09132B9F4893041F4A2
:100620008091E80082FFFCCF8BEF8093E80009C047
:100630008A3019F4D093020104C08B3031F4C09396
:1006400000018EEF8093E80003C081E28093EB000D
:10065000FF91EF91DF91CF91BF91AF919F918F91DA
:100660007F916F915F914F913F912F910F900FBEAE
:0A0670000F901F901895F894FFCF2B
:02067A0001007D
:00000001FF
