:100000000C94B9000C94D6000C94D6000C94D60035
:100010000C94D6000C94D6000C94D6000C94D60008
:100020000C94D6000C94D6000C94D6000C94AF011E
:100030000C94D0010C94D6000C94D6000C94D600ED
:100040000C94D6000C94D6000C94D6000C94D600D8
:100050000C94D6000C94D6000C94D6000C94D600C8
:100060000C94D6000C94D6000C94D6000C94D600B8
:100070000C94D600212601070000000000010000BA
:10008000590112000200001D0122002100002F0171
:1000900009002200003F011A0003000019010401B9
:1000A000030904CF004802030904AD0020200355D2
:1000B000006E006F004A006F00790020004A006F58
:1000C00000790073007400690063006B0000004851
:1000D000034F00700065006E00430068006F0072FF
:1000E00000640020005800200052004D00490054D8
:1000F0000020004500780065007200740069006F00
:10010000006E002000470061006D00650073002054
:10011000004C00610062000000040309040902228F
:100120000001010080320904000001030000000901
:100130002111010001221A000705810340000A0570
:10014000010904A101050209C409C509C615002653
:10015000FF00750895038102C01201100100000024
:1001600040C410C08200010102000101C132000040
:10017000000011241FBECFEFD2E0DEBFCDBF11E0E3
:10018000A0E0B1E0E6EDF5E002C005900D92A230EE
:10019000B107D9F721E0A2E0B1E001C01D92A7307C
:1001A000B207E1F70E94F8000C94E9020C940000F9
:1001B0002091C80027FD0AC0EFE9FFE03197F1F771
:1001C00000C000000197A1F780E008958091CE0063
:1001D00008959091C80095FFFCCF8093CE000895BC
:1001E0008091C80087FF03C08091CE00F9CF0895A9
:1001F000A89584B7877F84BF0FB6F894A89580919F
:100200006000886180936000109260000FBE80E8FB
:1002100080936100109261000E944E010E94720161
:1002200081110AC02FEF80E792E02150804090407A
:10023000E1F700C00000F2CF2FEF89E698E12150EE
:1002400080409040E1F700C000008FE39CE90197F7
:10025000F1F700C000000E94F00080E00E94E90079
:1002600089E190E00E94D800D82F81E00E94E90047
:1002700089E190E00E94D800C82F82E00E94E90046
:1002800089E190E00E94D8006D2F7C2F0E94A80188
:10029000DCCF8091E80080FFFCCF089580EA809356
:1002A000D80086E089BD80E090E009B400FC0DC074
:1002B000EFE9FFE03197F1F700C000000196883EBA
:1002C000F3E09F0791F781E0089580E88093D800DC
:1002D0001092E000109203018CE08093E200789489
:1002E00080E008958091030108958091030188239F
:1002F00069F18FB7F89491E09093E9009091E40050
:100300009E5C21E03091E80035FF12C0909104011D
:100310009093F100909105019093F1009091060166
:100320009093F1009AE39093E8008FBF80E00895E6
:100330008FBF80910301882349F08091E4009817D2
:1003400029F08FB7F8942093E900DCCF8FEF089560
:10035000E4E0F1E06083718382830C9475011F9265
:100360000F920FB60F9211248F938091E10010929B
:10037000E10083FF0FC01092E90081E08093EB0061
:100380001092EC0082E38093ED0088E08093F0000F
:10039000109203018F910F900FBE0F901F90189530
:1003A0001F920F920FB60F9211242F933F934F93EA
:1003B0005F936F937F938F939F93AF93BF93CF93ED
:1003C000DF93EF93FF931092E9008091E80083FFA1
:1003D000EAC09091F1008091F100C091F10020916C
:1003E000F100D0E0D22B2091F1004091F10030E0FB
:1003F000342B4091F1005091F10062EF6093E800DE
:10040000863009F049C08CE790E0FC016591749159
:10041000C617D707E1F4FC0132966591749126174F
:100420003707A9F4FC01349665917491FC01369666
:100430008491242F30E0352B2F3F310519F010F037
:100440002FEF30E0281708F4822F3EEF0DC00796FB
:1004500060E08D3A9607C9F6A6C0690F711D891B29
:100460003093E8008823A9F09091E800292F2570A7
:10047000D9F392FD9BC0982F813408F090E4FB01E2
:10048000292F222351F344914093F10021503196BA
:10049000F8CF903449F38AC0853049F48EEF8093C9
:1004A000E8000E944901C068C093E3007FC0893022
:1004B00059F591113BC0C09303018EEF8093E80082
:1004C00041E08BE691E04093E9009C012F5F3F4FB4
:1004D000FC0154915093EB00552359F0F9012491FC
:1004E0002093EC009C012D5F3F4F3196E491E09307
:1004F000ED004F5F453011F0C901E5CF8EE18093EB
:10050000EA001092EA0052C0883039F4903871F451
:100510000E944901809103012AC0811107C00E94F5
:1005200049011092F1001092F10039C0232BD9F546
:10053000913A01F5813071F40E944901E4E7F0E05D
:100540008CE790E024912093F10031968E179F075D
:10055000C9F725C0823029F40E9449018091020127
:1005600006C0833001F50E9449018091000180930B
:10057000F10015C09132B9F4893041F48091E8005E
:1005800082FFFCCF8BEF8093E80009C08A3019F41A
:10059000D093020104C08B3031F4C09300018EEF80
:1005A0008093E80003C081E28093EB00FF91EF911C
:1005B000DF91CF91BF91AF919F918F917F916F917B
:1005C0005F914F913F912F910F900FBE0F901F9011
:0605D0001895F894FFCF1E
:0205D600010022
:00000001FF
